{
  "contractName": "BetGaming",
  "abi": [
    {
      "inputs": [],
      "stateMutability": "nonpayable",
      "type": "constructor"
    },
    {
      "anonymous": false,
      "inputs": [
        {
          "indexed": false,
          "internalType": "address",
          "name": "player",
          "type": "address"
        },
        {
          "indexed": false,
          "internalType": "uint256",
          "name": "prize",
          "type": "uint256"
        },
        {
          "indexed": false,
          "internalType": "enum BetGaming.GameStatus",
          "name": "status",
          "type": "uint8"
        }
      ],
      "name": "GameEnded",
      "type": "event"
    },
    {
      "inputs": [],
      "name": "admin",
      "outputs": [
        {
          "internalType": "address",
          "name": "",
          "type": "address"
        }
      ],
      "stateMutability": "view",
      "type": "function",
      "constant": true
    },
    {
      "inputs": [
        {
          "internalType": "address",
          "name": "",
          "type": "address"
        },
        {
          "internalType": "uint256",
          "name": "",
          "type": "uint256"
        }
      ],
      "name": "games",
      "outputs": [
        {
          "internalType": "uint256",
          "name": "opponentGuess",
          "type": "uint256"
        },
        {
          "internalType": "uint256",
          "name": "contractGuess",
          "type": "uint256"
        },
        {
          "internalType": "enum BetGaming.GameStatus",
          "name": "status",
          "type": "uint8"
        }
      ],
      "stateMutability": "view",
      "type": "function",
      "constant": true
    },
    {
      "inputs": [
        {
          "internalType": "uint256",
          "name": "_oGuess",
          "type": "uint256"
        }
      ],
      "name": "newGame",
      "outputs": [
        {
          "internalType": "uint256",
          "name": "usersGuess",
          "type": "uint256"
        },
        {
          "internalType": "uint256",
          "name": "contractGuess",
          "type": "uint256"
        },
        {
          "internalType": "enum BetGaming.GameStatus",
          "name": "result",
          "type": "uint8"
        }
      ],
      "stateMutability": "payable",
      "type": "function",
      "payable": true
    }
  ],
  "bytecode": "0x608060405234801561001057600080fd5b50336000806101000a81548173ffffffffffffffffffffffffffffffffffffffff021916908373ffffffffffffffffffffffffffffffffffffffff1602179055506106e2806100606000396000f3fe6080604052600436106100345760003560e01c80632a8ec9b814610039578063cde9ef7814610078578063f851a440146100aa575b600080fd5b34801561004557600080fd5b50610060600480360381019061005b9190610395565b6100d5565b60405161006f9392919061045b565b60405180910390f35b610092600480360381019061008d9190610492565b610129565b6040516100a19392919061045b565b60405180910390f35b3480156100b657600080fd5b506100bf6102a3565b6040516100cc91906104ce565b60405180910390f35b600160205281600052604060002081815481106100f157600080fd5b9060005260206000209060030201600091509150508060000154908060010154908060020160009054906101000a900460ff16905083565b6000806000343373ffffffffffffffffffffffffffffffffffffffff163111610187576040517f08c379a000000000000000000000000000000000000000000000000000000000815260040161017e9061056c565b60405180910390fd5b60006101916102c7565b90506000808287111561020357600191506002346101af91906105bb565b905060003390508073ffffffffffffffffffffffffffffffffffffffff166108fc839081150290604051600060405180830381858888f193505050501580156101fc573d6000803e3d6000fd5b505061021d565b82871415610217576003915034905061021c565b600291505b5b60006040518060600160405280898152602001858152602001846003811115610249576102486103e4565b5b81525090507fc8c032ae17ec01cb42f0057ac57cba27c9409adf4e3d7611aab3ea0100a5bf5233838560405161028193929190610615565b60405180910390a1610292816102db565b965096509650505050509193909250565b60008054906101000a900473ffffffffffffffffffffffffffffffffffffffff1681565b6000600a426102d6919061067b565b905090565b60008060008360000151925083602001519150836040015190509193909250565b600080fd5b600073ffffffffffffffffffffffffffffffffffffffff82169050919050565b600061032c82610301565b9050919050565b61033c81610321565b811461034757600080fd5b50565b60008135905061035981610333565b92915050565b6000819050919050565b6103728161035f565b811461037d57600080fd5b50565b60008135905061038f81610369565b92915050565b600080604083850312156103ac576103ab6102fc565b5b60006103ba8582860161034a565b92505060206103cb85828601610380565b9150509250929050565b6103de8161035f565b82525050565b7f4e487b7100000000000000000000000000000000000000000000000000000000600052602160045260246000fd5b60048110610424576104236103e4565b5b50565b600081905061043582610413565b919050565b600061044582610427565b9050919050565b6104558161043a565b82525050565b600060608201905061047060008301866103d5565b61047d60208301856103d5565b61048a604083018461044c565b949350505050565b6000602082840312156104a8576104a76102fc565b5b60006104b684828501610380565b91505092915050565b6104c881610321565b82525050565b60006020820190506104e360008301846104bf565b92915050565b600082825260208201905092915050565b7f7b636f64653a20312c206d6573736167653a2027496e73756666696369656e7460008201527f2046756e64277d00000000000000000000000000000000000000000000000000602082015250565b60006105566027836104e9565b9150610561826104fa565b604082019050919050565b6000602082019050818103600083015261058581610549565b9050919050565b7f4e487b7100000000000000000000000000000000000000000000000000000000600052601160045260246000fd5b60006105c68261035f565b91506105d18361035f565b9250817fffffffffffffffffffffffffffffffffffffffffffffffffffffffffffffffff048311821515161561060a5761060961058c565b5b828202905092915050565b600060608201905061062a60008301866104bf565b61063760208301856103d5565b610644604083018461044c565b949350505050565b7f4e487b7100000000000000000000000000000000000000000000000000000000600052601260045260246000fd5b60006106868261035f565b91506106918361035f565b9250826106a1576106a061064c565b5b82820690509291505056fea264697066735822122026f170e6574880e44447df56219405b7a6a65d8c4b74bb929328685fb9d0abca64736f6c634300080b0033",
  "immutableReferences": {},
  "source": "// SPDX-License-Identifier: GPL-3.0\npragma solidity >0.8.0;\n\ncontract BetGaming {\n    address public admin;\n    enum GameStatus {\n        Pending,\n        UserWon,\n        ContractWon,\n        Even\n    }\n    event GameEnded(address player, uint256 prize, GameStatus status);\n\n    constructor() {\n        admin = msg.sender;\n    }\n\n    struct Game {\n        uint256 opponentGuess;\n        uint256 contractGuess;\n        GameStatus status;\n        // uint wins;\n        // uint losses;\n    }\n\n    mapping(address => Game[]) public games;\n\n    modifier hasBalance() {\n        require(\n            msg.sender.balance > msg.value,\n            \"{code: 1, message: 'Insufficient Fund'}\"\n        );\n        _;\n    }\n\n    function guess() private view returns (uint256) {\n        return (block.timestamp % 10);\n    }\n\n    function newGame(uint256 _oGuess)\n        public\n        payable\n        hasBalance\n        returns (\n            uint256 usersGuess,\n            uint256 contractGuess,\n            GameStatus result\n        )\n    {\n        uint256 _contractGuess = guess();\n        GameStatus status = GameStatus.Pending;\n        uint256 prize = 0;\n\n        if (_oGuess > _contractGuess) {\n            // user won\n            status = GameStatus.UserWon;\n            prize = msg.value * 2;\n            address payable rec = payable(msg.sender);\n            rec.transfer(prize);\n        } else if (_oGuess == _contractGuess) {\n            // even\n            status = GameStatus.Even;\n            prize = msg.value;\n        } else {\n            // contract won\n            status = GameStatus.ContractWon;\n        }\n\n        Game memory _game = Game(_oGuess, _contractGuess, status);\n        // games[msg.sender].push(_game);\n        emit GameEnded(msg.sender, prize, status);\n        return toTupple(_game);\n    }\n\n    function toTupple(Game memory game)\n        private\n        pure\n        returns (\n            uint256 usersGuess,\n            uint256 contractGuess,\n            GameStatus result\n        )\n    {\n        {\n            usersGuess = game.opponentGuess;\n            contractGuess = game.contractGuess;\n            result = game.status;\n        }\n    }\n}\n",
  "sourcePath": "/Users/amir.zad/Workspace/bet-gaming/contracts/BetGaming.sol",
  "compiler": {
    "name": "solc",
    "version": "0.8.11+commit.d7f03943.Emscripten.clang"
  },
  "schemaVersion": "3.4.4",
  "updatedAt": "2021-12-21T03:45:14.054Z",
  "networkType": "ethereum",
  "devdoc": {
    "kind": "dev",
    "methods": {},
    "version": 1
  },
  "userdoc": {
    "kind": "user",
    "methods": {},
    "version": 1
  }
}